{
  "contractName": "PatientData",
  "abi": [
    {
      "constant": true,
      "inputs": [],
      "name": "countMedicalReports",
      "outputs": [
        {
          "name": "",
          "type": "uint256"
        }
      ],
      "payable": false,
      "stateMutability": "view",
      "type": "function"
    },
    {
      "constant": true,
      "inputs": [
        {
          "name": "",
          "type": "address"
        }
      ],
      "name": "senders",
      "outputs": [
        {
          "name": "name",
          "type": "string"
        },
        {
          "name": "institutionName",
          "type": "string"
        },
        {
          "name": "institutionCode",
          "type": "string"
        },
        {
          "name": "patientCount",
          "type": "uint256"
        }
      ],
      "payable": false,
      "stateMutability": "view",
      "type": "function"
    },
    {
      "constant": true,
      "inputs": [
        {
          "name": "",
          "type": "uint256"
        }
      ],
      "name": "medicalReports",
      "outputs": [
        {
          "name": "senderId",
          "type": "address"
        },
        {
          "name": "medReportId",
          "type": "string"
        },
        {
          "name": "weight",
          "type": "uint256"
        },
        {
          "name": "height",
          "type": "uint256"
        },
        {
          "name": "bloodGroup",
          "type": "string"
        },
        {
          "name": "diseaseName",
          "type": "string"
        },
        {
          "name": "diseaseDescription",
          "type": "string"
        },
        {
          "name": "diseaseStartedOn",
          "type": "string"
        }
      ],
      "payable": false,
      "stateMutability": "view",
      "type": "function"
    },
    {
      "inputs": [],
      "payable": false,
      "stateMutability": "nonpayable",
      "type": "constructor"
    },
    {
      "constant": false,
      "inputs": [
        {
          "name": "patientId",
          "type": "string"
        },
        {
          "name": "patientName",
          "type": "string"
        },
        {
          "name": "birthDate",
          "type": "string"
        },
        {
          "name": "phoneNumber",
          "type": "string"
        },
        {
          "name": "_address",
          "type": "string"
        },
        {
          "name": "medReportId",
          "type": "string"
        },
        {
          "name": "weight",
          "type": "uint256"
        },
        {
          "name": "height",
          "type": "uint256"
        },
        {
          "name": "bloodGroup",
          "type": "string"
        },
        {
          "name": "diseaseName",
          "type": "string"
        },
        {
          "name": "diseaseDescription",
          "type": "string"
        },
        {
          "name": "diseaseStartedOn",
          "type": "string"
        }
      ],
      "name": "addMedicalReport",
      "outputs": [],
      "payable": false,
      "stateMutability": "nonpayable",
      "type": "function"
    },
    {
      "constant": true,
      "inputs": [
        {
          "name": "index",
          "type": "uint256"
        }
      ],
      "name": "getPatientsList",
      "outputs": [
        {
          "name": "",
          "type": "string"
        },
        {
          "name": "",
          "type": "string"
        },
        {
          "name": "",
          "type": "string"
        },
        {
          "name": "",
          "type": "string"
        },
        {
          "name": "",
          "type": "uint256"
        }
      ],
      "payable": false,
      "stateMutability": "view",
      "type": "function"
    }
  ],
  "bytecode": "0x608060405260008055600060045534801561001957600080fd5b50611e16806100296000396000f3fe60806040526004361061006b5763ffffffff7c010000000000000000000000000000000000000000000000000000000060003504166260d3998114610070578063360d0f29146105f1578063982fb9d814610618578063a2df7d0b14610796578063beedbba9146109f7575b600080fd5b34801561007c57600080fd5b506105ef600480360361018081101561009457600080fd5b8101906020810181356401000000008111156100af57600080fd5b8201836020820111156100c157600080fd5b803590602001918460018302840111640100000000831117156100e357600080fd5b91908080601f016020809104026020016040519081016040528093929190818152602001838380828437600092019190915250929594936020810193503591505064010000000081111561013657600080fd5b82018360208201111561014857600080fd5b8035906020019184600183028401116401000000008311171561016a57600080fd5b91908080601f01602080910402602001604051908101604052809392919081815260200183838082843760009201919091525092959493602081019350359150506401000000008111156101bd57600080fd5b8201836020820111156101cf57600080fd5b803590602001918460018302840111640100000000831117156101f157600080fd5b91908080601f016020809104026020016040519081016040528093929190818152602001838380828437600092019190915250929594936020810193503591505064010000000081111561024457600080fd5b82018360208201111561025657600080fd5b8035906020019184600183028401116401000000008311171561027857600080fd5b91908080601f01602080910402602001604051908101604052809392919081815260200183838082843760009201919091525092959493602081019350359150506401000000008111156102cb57600080fd5b8201836020820111156102dd57600080fd5b803590602001918460018302840111640100000000831117156102ff57600080fd5b91908080601f016020809104026020016040519081016040528093929190818152602001838380828437600092019190915250929594936020810193503591505064010000000081111561035257600080fd5b82018360208201111561036457600080fd5b8035906020019184600183028401116401000000008311171561038657600080fd5b91908080601f01602080910402602001604051908101604052809392919081815260200183838082843760009201919091525092958435956020860135959194509250606081019150604001356401000000008111156103e557600080fd5b8201836020820111156103f757600080fd5b8035906020019184600183028401116401000000008311171561041957600080fd5b91908080601f016020809104026020016040519081016040528093929190818152602001838380828437600092019190915250929594936020810193503591505064010000000081111561046c57600080fd5b82018360208201111561047e57600080fd5b803590602001918460018302840111640100000000831117156104a057600080fd5b91908080601f01602080910402602001604051908101604052809392919081815260200183838082843760009201919091525092959493602081019350359150506401000000008111156104f357600080fd5b82018360208201111561050557600080fd5b8035906020019184600183028401116401000000008311171561052757600080fd5b91908080601f016020809104026020016040519081016040528093929190818152602001838380828437600092019190915250929594936020810193503591505064010000000081111561057a57600080fd5b82018360208201111561058c57600080fd5b803590602001918460018302840111640100000000831117156105ae57600080fd5b91908080601f016020809104026020016040519081016040528093929190818152602001838380828437600092019190915250929550610bd2945050505050565b005b3480156105fd57600080fd5b50610606611504565b60408051918252519081900360200190f35b34801561062457600080fd5b5061064b6004803603602081101561063b57600080fd5b5035600160a060020a031661150a565b60405180806020018060200180602001858152602001848103845288818151815260200191508051906020019080838360005b8381101561069657818101518382015260200161067e565b50505050905090810190601f1680156106c35780820380516001836020036101000a031916815260200191505b50848103835287518152875160209182019189019080838360005b838110156106f65781810151838201526020016106de565b50505050905090810190601f1680156107235780820380516001836020036101000a031916815260200191505b50848103825286518152865160209182019188019080838360005b8381101561075657818101518382015260200161073e565b50505050905090810190601f1680156107835780820380516001836020036101000a031916815260200191505b5097505050505050505060405180910390f35b3480156107a257600080fd5b506107c0600480360360208110156107b957600080fd5b50356116dc565b6040518089600160a060020a0316600160a060020a03168152602001806020018881526020018781526020018060200180602001806020018060200186810386528d818151815260200191508051906020019080838360005b83811015610831578181015183820152602001610819565b50505050905090810190601f16801561085e5780820380516001836020036101000a031916815260200191505b5086810385528a5181528a516020918201918c019080838360005b83811015610891578181015183820152602001610879565b50505050905090810190601f1680156108be5780820380516001836020036101000a031916815260200191505b5086810384528951815289516020918201918b019080838360005b838110156108f15781810151838201526020016108d9565b50505050905090810190601f16801561091e5780820380516001836020036101000a031916815260200191505b5086810383528851815288516020918201918a019080838360005b83811015610951578181015183820152602001610939565b50505050905090810190601f16801561097e5780820380516001836020036101000a031916815260200191505b50868103825287518152875160209182019189019080838360005b838110156109b1578181015183820152602001610999565b50505050905090810190601f1680156109de5780820380516001836020036101000a031916815260200191505b509d505050505050505050505050505060405180910390f35b348015610a0357600080fd5b50610a2160048036036020811015610a1a57600080fd5b50356119e7565b604051808060200180602001806020018060200186815260200185810385528a818151815260200191508051906020019080838360005b83811015610a70578181015183820152602001610a58565b50505050905090810190601f168015610a9d5780820380516001836020036101000a031916815260200191505b5085810384528951815289516020918201918b019080838360005b83811015610ad0578181015183820152602001610ab8565b50505050905090810190601f168015610afd5780820380516001836020036101000a031916815260200191505b5085810383528851815288516020918201918a019080838360005b83811015610b30578181015183820152602001610b18565b50505050905090810190601f168015610b5d5780820380516001836020036101000a031916815260200191505b50858103825287518152875160209182019189019080838360005b83811015610b90578181015183820152602001610b78565b50505050905090810190601f168015610bbd5780820380516001836020036101000a031916815260200191505b50995050505050505050505060405180910390f35b60606001600033600160a060020a0316600160a060020a031681526020019081526020016000206005018d6040518082805190602001908083835b60208310610c2c5780518252601f199092019160209182019101610c0d565b518151600019602094850361010090810a820192831692199390931691909117909252949092019687526040805197889003820188208054601f6002600183161590980290950116959095049283018290048202880182019052818752929450925050830182828015610ce05780601f10610cb557610100808354040283529160200191610ce0565b820191906000526020600020905b815481529060010190602001808311610cc357829003601f168201915b50505050509050805160001415610fb9578c6001600033600160a060020a0316600160a060020a0316815260200190815260200160002060040160006001600033600160a060020a0316600160a060020a0316815260200190815260200160002060030160008154809291906001019190505581526020019081526020016000209080519060200190610d74929190611d1f565b5060a0604051908101604052808d81526020018c81526020018b81526020018a81526020016000548152506001600033600160a060020a0316600160a060020a031681526020019081526020016000206005018e6040518082805190602001908083835b60208310610df75780518252601f199092019160209182019101610dd8565b51815160209384036101000a6000190180199092169116179052920194855250604051938490038101909320845180519194610e3894508593500190611d1f565b506020828101518051610e519260018501920190611d1f565b5060408201518051610e6d916002840191602090910190611d1f565b5060608201518051610e89916003840191602090910190611d1f565b5060809182015160049190910155604080516101008101825233815260208082018c81528284018c9052606083018b905293820189905260a0820188905260c0820187905260e082018690526000805460018082018355908252600283529390208251815473ffffffffffffffffffffffffffffffffffffffff1916600160a060020a0390911617815593518051929493610f2c93908501929190910190611d1f565b50604082015160028201556060820151600382015560808201518051610f5c916004840191602090910190611d1f565b5060a08201518051610f78916005840191602090910190611d1f565b5060c08201518051610f94916006840191602090910190611d1f565b5060e08201518051610fb0916007840191602090910190611d1f565b509050506114f5565b610fc1611d9d565b6001600033600160a060020a0316600160a060020a031681526020019081526020016000206005018e6040518082805190602001908083835b602083106110195780518252601f199092019160209182019101610ffa565b518151600019602094850361010090810a82019283169219939093169190911790925294909201968752604080519788900382018820805460c0601f600260018416159099029096019091169690960493840183900490920288018501905260a08701828152909550869450928592508401828280156110da5780601f106110af576101008083540402835291602001916110da565b820191906000526020600020905b8154815290600101906020018083116110bd57829003601f168201915b50505050508152602001600182018054600181600116156101000203166002900480601f01602080910402602001604051908101604052809291908181526020018280546001816001161561010002031660029004801561117c5780601f106111515761010080835404028352916020019161117c565b820191906000526020600020905b81548152906001019060200180831161115f57829003601f168201915b5050509183525050600282810180546040805160206001841615610100026000190190931694909404601f8101839004830285018301909152808452938101939083018282801561120e5780601f106111e35761010080835404028352916020019161120e565b820191906000526020600020905b8154815290600101906020018083116111f157829003601f168201915b505050918352505060038201805460408051602060026001851615610100026000190190941693909304601f81018490048402820184019092528181529382019392918301828280156112a25780601f10611277576101008083540402835291602001916112a2565b820191906000526020600020905b81548152906001019060200180831161128557829003601f168201915b50505050508152602001600482015481525050905060a0604051908101604052808e81526020018d81526020018c81526020018b815260200182608001518152506001600033600160a060020a0316600160a060020a031681526020019081526020016000206005018f6040518082805190602001908083835b6020831061133b5780518252601f19909201916020918201910161131c565b51815160209384036101000a600019018019909216911617905292019485525060405193849003810190932084518051919461137c94508593500190611d1f565b5060208281015180516113959260018501920190611d1f565b50604082015180516113b1916002840191602090910190611d1f565b50606082015180516113cd916003840191602090910190611d1f565b5060809182015160049190910155604080516101008101825233815260208082018d81528284018d9052606083018c90528285018b905260a083018a905260c0830189905260e0830188905293850151600090815260028252929092208151815473ffffffffffffffffffffffffffffffffffffffff1916600160a060020a039091161781559251805191939261146c92600185019290910190611d1f565b5060408201516002820155606082015160038201556080820151805161149c916004840191602090910190611d1f565b5060a082015180516114b8916005840191602090910190611d1f565b5060c082015180516114d4916006840191602090910190611d1f565b5060e082015180516114f0916007840191602090910190611d1f565b505050505b50505050505050505050505050565b60005481565b60016020818152600092835260409283902080548451600294821615610100026000190190911693909304601f810183900483028401830190945283835292839183018282801561159c5780601f106115715761010080835404028352916020019161159c565b820191906000526020600020905b81548152906001019060200180831161157f57829003601f168201915b505050505090806001018054600181600116156101000203166002900480601f01602080910402602001604051908101604052809291908181526020018280546001816001161561010002031660029004801561163a5780601f1061160f5761010080835404028352916020019161163a565b820191906000526020600020905b81548152906001019060200180831161161d57829003601f168201915b50505060028085018054604080516020601f60001961010060018716150201909416959095049283018590048502810185019091528181529596959450909250908301828280156116cc5780601f106116a1576101008083540402835291602001916116cc565b820191906000526020600020905b8154815290600101906020018083116116af57829003601f168201915b5050505050908060030154905084565b6002602081815260009283526040928390208054600180830180548751601f60001994831615610100029490940190911696909604918201859004850286018501909652808552600160a060020a03909116949193928301828280156117835780601f1061175857610100808354040283529160200191611783565b820191906000526020600020905b81548152906001019060200180831161176657829003601f168201915b505050505090806002015490806003015490806004018054600181600116156101000203166002900480601f01602080910402602001604051908101604052809291908181526020018280546001816001161561010002031660029004801561182d5780601f106118025761010080835404028352916020019161182d565b820191906000526020600020905b81548152906001019060200180831161181057829003601f168201915b5050505060058301805460408051602060026001851615610100026000190190941693909304601f81018490048402820184019092528181529495949350908301828280156118bd5780601f10611892576101008083540402835291602001916118bd565b820191906000526020600020905b8154815290600101906020018083116118a057829003601f168201915b5050505060068301805460408051602060026001851615610100026000190190941693909304601f810184900484028201840190925281815294959493509083018282801561194d5780601f106119225761010080835404028352916020019161194d565b820191906000526020600020905b81548152906001019060200180831161193057829003601f168201915b5050505060078301805460408051602060026001851615610100026000190190941693909304601f81018490048402820184019092528181529495949350908301828280156119dd5780601f106119b2576101008083540402835291602001916119dd565b820191906000526020600020905b8154815290600101906020018083116119c057829003601f168201915b5050505050905088565b60608060608060006119f7611d9d565b3360009081526001602081815260408084208b855260048101909252928390209251835460059092019392909182918491600291811615610100026000190116048015611a7b5780601f10611a59576101008083540402835291820191611a7b565b820191906000526020600020905b815481529060010190602001808311611a67575b505092835250506040805160209281900383018120805460026001821615610100026000190190911604601f8101859004909402820160c090810190935260a08201848152919390928492918491840182828015611b1a5780601f10611aef57610100808354040283529160200191611b1a565b820191906000526020600020905b815481529060010190602001808311611afd57829003601f168201915b50505050508152602001600182018054600181600116156101000203166002900480601f016020809104026020016040519081016040528092919081815260200182805460018160011615610100020316600290048015611bbc5780601f10611b9157610100808354040283529160200191611bbc565b820191906000526020600020905b815481529060010190602001808311611b9f57829003601f168201915b5050509183525050600282810180546040805160206001841615610100026000190190931694909404601f81018390048302850183019091528084529381019390830182828015611c4e5780601f10611c2357610100808354040283529160200191611c4e565b820191906000526020600020905b815481529060010190602001808311611c3157829003601f168201915b505050918352505060038201805460408051602060026001851615610100026000190190941693909304601f8101849004840282018401909252818152938201939291830182828015611ce25780601f10611cb757610100808354040283529160200191611ce2565b820191906000526020600020905b815481529060010190602001808311611cc557829003601f168201915b50505091835250506004919091015460209182015281519082015160408301516060840151608090940151929b919a509850919650945092505050565b828054600181600116156101000203166002900490600052602060002090601f016020900481019282601f10611d6057805160ff1916838001178555611d8d565b82800160010185558215611d8d579182015b82811115611d8d578251825591602001919060010190611d72565b50611d99929150611dcd565b5090565b60a06040519081016040528060608152602001606081526020016060815260200160608152602001600081525090565b611de791905b80821115611d995760008155600101611dd3565b9056fea165627a7a723058209e8052de4bcdba9505e9f2d27dd842eb5b8bd3d2247eedd88460db6a6646b2c50029",
  "source": "pragma solidity 0.5.0;\r\n\r\ncontract PatientData {\r\n  uint256 public countMedicalReports = 0;\r\n \r\n  mapping(address => Sender) public senders;\r\n  mapping(uint => PatientMedicalReportStruct) public medicalReports;\r\n\r\n  mapping(uint => string) hashes;\r\n  uint hashCount = 0;\r\n\r\n  struct PatientBioStruct {\r\n    string name;\r\n    string birthDate;\r\n    string phoneNumber;\r\n    string _address;\r\n    uint medicalReportNo;\r\n  }\r\n\r\n  struct PatientMedicalReportStruct {\r\n    address senderId;\r\n    string medReportId;\r\n    uint weight;\r\n    uint height;\r\n    string bloodGroup;\r\n    string diseaseName;\r\n    string diseaseDescription;\r\n    string diseaseStartedOn;\r\n  }\r\n\r\n  struct Sender {\r\n    string name;\r\n    string institutionName;\r\n    string institutionCode;\r\n    uint patientCount;\r\n    mapping(uint => string) patientsArray;\r\n    mapping(string => PatientBioStruct) patients;\r\n  }\r\n\r\n  constructor() public {\r\n  }\r\n\r\n  function addMedicalReport(\r\n    string memory patientId,\r\n    string memory patientName, \r\n    string memory birthDate, \r\n    string memory phoneNumber, \r\n    string memory _address,\r\n    string memory medReportId,\r\n    uint weight,\r\n    uint height,\r\n    string memory bloodGroup,\r\n    string memory diseaseName,\r\n    string memory diseaseDescription,\r\n    string memory diseaseStartedOn\r\n  ) public {\r\n    // uint _hash = uint(keccak256(abi.encodePacked(msg.sender, patientId, medReportId)));\r\n    bytes memory name = bytes(senders[msg.sender].patients[patientId].name); \r\n    if( name.length == 0)\r\n    {\r\n      senders[msg.sender].patientsArray[senders[msg.sender].patientCount++] = patientId; \r\n      senders[msg.sender].patients[patientId] = \r\n        PatientBioStruct(patientName, birthDate, phoneNumber, _address, countMedicalReports);\r\n    \r\n      medicalReports[countMedicalReports++] = \r\n        PatientMedicalReportStruct(msg.sender,medReportId,  weight, height, bloodGroup, diseaseName, diseaseDescription, diseaseStartedOn);\r\n  \r\n    } else {\r\n      PatientBioStruct memory patientBio = \r\n        senders[msg.sender].patients[patientId];\r\n      senders[msg.sender].patients[patientId] = \r\n        PatientBioStruct(patientName, birthDate, phoneNumber, _address, patientBio.medicalReportNo);\r\n      medicalReports[patientBio.medicalReportNo] = \r\n        PatientMedicalReportStruct(msg.sender, medReportId, weight, height, bloodGroup, diseaseName, diseaseDescription, diseaseStartedOn);\r\n  \r\n    }\r\n  }\r\n\r\n  function getPatientsList(uint index) public view returns (\r\n    string memory,\r\n    string memory, \r\n    string memory, \r\n    string memory, \r\n    uint) {\r\n    PatientBioStruct memory patientBio = \r\n      senders[msg.sender].patients[senders[msg.sender].patientsArray[index]];\r\n    return (\r\n      patientBio.name,\r\n      patientBio.birthDate,\r\n      patientBio.phoneNumber,\r\n      patientBio._address,\r\n      patientBio.medicalReportNo\r\n    );\r\n  }\r\n}\r\n\r\n\r\n\r\n  // hashes[0] = \"da52b2c2cb1f489f33140c4b75a327bf6c0d6f59\";\r\n  // hashes[1] = \"a76a824ddfe85416fa340580773e4c0f8a166141\";\r\n  // hashes[2] = \"89315849195a60c41f8486621ec8573dbeb4b016\";\r\n  // hashes[3] = \"e15789896d995a86e0cb5460d16b2f7923dcb5de\";\r\n  // hashes[4] = \"664837b1f44f1d613ff380c4027a9d0668d99be6\";\r\n  // hashes[5] = \"d356b809e19dad4175e45e3ccd0e47e71513bf1a\";\r\n  // hashes[6] = \"eea5eedbdda51657d9dd4826eba76ed0b22539c4\";\r\n  // hashes[7] = \"8b0b0653bf3f33fb5f9d04e9c62cd85cbf3e8fcc\";\r\n  // hashes[8] = \"5dd054b4f6cf6d98a183c35dc08c73aa1a80447a\";\r\n  // hashes[9] = \"26ddd4f134ef98f49f22742bc5472d413a93fe03\";\r\n  \r\n    // addMedicalReport(\r\n    //   \"DJX1234KL\",\r\n    //   \"Rahul Sharma\", \r\n    //   \"15 Oct 2003\", \"9988776655\", \r\n    //   \"Panini-A hostel, IIITDMJ campus, Jabalpur\", \r\n    //   \"MEDREPIDDFG3456KL\", 58, 164, \r\n    //   \"A+\", \"Anaemia\", \r\n    //   \"caused by iron deficiency\", \r\n    //   \"1 Dec 2023\");",
  "sourcePath": "C:\\Users\\Win\\Desktop\\blockchain\\contracts\\PatientData.sol",
  "compiler": {
    "name": "solc",
    "version": "0.5.0+commit.1d4f565a.Emscripten.clang"
  },
  "schemaVersion": "3.4.16",
  "updatedAt": "2024-07-26T07:14:07.986Z",
  "networkType": "ethereum",
  "devdoc": {
    "methods": {}
  },
  "userdoc": {
    "methods": {}
  }
}