{
  "contractName": "SaveData",
  "abi": [
    {
      "constant": true,
      "inputs": [
        {
          "name": "",
          "type": "address"
        }
      ],
      "name": "senders",
      "outputs": [
        {
          "name": "totalMedicalReports",
          "type": "uint256"
        }
      ],
      "payable": false,
      "stateMutability": "view",
      "type": "function"
    },
    {
      "constant": true,
      "inputs": [],
      "name": "totalMedicalReports",
      "outputs": [
        {
          "name": "",
          "type": "uint256"
        }
      ],
      "payable": false,
      "stateMutability": "view",
      "type": "function"
    },
    {
      "constant": true,
      "inputs": [
        {
          "name": "",
          "type": "uint256"
        }
      ],
      "name": "data",
      "outputs": [
        {
          "name": "hashOfOriginalDataString",
          "type": "string"
        },
        {
          "name": "secondTimeEncryptedString",
          "type": "string"
        },
        {
          "name": "sender",
          "type": "address"
        },
        {
          "name": "medReportId",
          "type": "string"
        }
      ],
      "payable": false,
      "stateMutability": "view",
      "type": "function"
    },
    {
      "constant": false,
      "inputs": [
        {
          "name": "secondTimeEncryptedString",
          "type": "string"
        },
        {
          "name": "hashOfOriginalDataString",
          "type": "string"
        },
        {
          "name": "medReportId",
          "type": "string"
        }
      ],
      "name": "saveData",
      "outputs": [],
      "payable": false,
      "stateMutability": "nonpayable",
      "type": "function"
    }
  ],
  "bytecode": "0x60806040526000805534801561001457600080fd5b506107c0806100246000396000f3fe6080604052600436106100615763ffffffff7c01000000000000000000000000000000000000000000000000000000006000350416632320b16b8114610066578063982fb9d814610229578063e7ee5d521461027b578063f0ba844014610290575b600080fd5b34801561007257600080fd5b506102276004803603606081101561008957600080fd5b8101906020810181356401000000008111156100a457600080fd5b8201836020820111156100b657600080fd5b803590602001918460018302840111640100000000831117156100d857600080fd5b91908080601f016020809104026020016040519081016040528093929190818152602001838380828437600092019190915250929594936020810193503591505064010000000081111561012b57600080fd5b82018360208201111561013d57600080fd5b8035906020019184600183028401116401000000008311171561015f57600080fd5b91908080601f01602080910402602001604051908101604052809392919081815260200183838082843760009201919091525092959493602081019350359150506401000000008111156101b257600080fd5b8201836020820111156101c457600080fd5b803590602001918460018302840111640100000000831117156101e657600080fd5b91908080601f016020809104026020016040519081016040528093929190818152602001838380828437600092019190915250929550610431945050505050565b005b34801561023557600080fd5b506102696004803603602081101561024c57600080fd5b503573ffffffffffffffffffffffffffffffffffffffff166104f8565b60408051918252519081900360200190f35b34801561028757600080fd5b5061026961050a565b34801561029c57600080fd5b506102ba600480360360208110156102b357600080fd5b5035610510565b6040518080602001806020018573ffffffffffffffffffffffffffffffffffffffff1673ffffffffffffffffffffffffffffffffffffffff16815260200180602001848103845288818151815260200191508051906020019080838360005b83811015610331578181015183820152602001610319565b50505050905090810190601f16801561035e5780820380516001836020036101000a031916815260200191505b50848103835287518152875160209182019189019080838360005b83811015610391578181015183820152602001610379565b50505050905090810190601f1680156103be5780820380516001836020036101000a031916815260200191505b50848103825285518152855160209182019187019080838360005b838110156103f15781810151838201526020016103d9565b50505050905090810190601f16801561041e5780820380516001836020036101000a031916815260200191505b5097505050505050505060405180910390f35b6000805481526001602081815260409092208551610457939190920191908601906106f9565b506000805481526001602090815260409091208351610478928501906106f9565b50600080548152600160209081526040808320600201805473ffffffffffffffffffffffffffffffffffffffff1916331790558254835290912082516104c6926003909201918401906106f9565b505060008054600180820183553383526002602090815260408085208054808501825586529092019052909120555050565b60026020526000908152604090205481565b60005481565b60016020818152600092835260409283902080548451600294821615610100026000190190911693909304601f81018390048302840183019094528383529283918301828280156105a25780601f10610577576101008083540402835291602001916105a2565b820191906000526020600020905b81548152906001019060200180831161058557829003601f168201915b505050505090806001018054600181600116156101000203166002900480601f0160208091040260200160405190810160405280929190818152602001828054600181600116156101000203166002900480156106405780601f1061061557610100808354040283529160200191610640565b820191906000526020600020905b81548152906001019060200180831161062357829003601f168201915b505050506002838101546003850180546040805160206101006001851615026000190190931695909504601f8101839004830286018301909152808552959673ffffffffffffffffffffffffffffffffffffffff909316959294509091908301828280156106ef5780601f106106c4576101008083540402835291602001916106ef565b820191906000526020600020905b8154815290600101906020018083116106d257829003601f168201915b5050505050905084565b828054600181600116156101000203166002900490600052602060002090601f016020900481019282601f1061073a57805160ff1916838001178555610767565b82800160010185558215610767579182015b8281111561076757825182559160200191906001019061074c565b50610773929150610777565b5090565b61079191905b80821115610773576000815560010161077d565b9056fea165627a7a723058204464580a38a14930d1b1e01ff7ef6c06f92377705000e4125bb2427b14db31b20029",
  "source": "pragma solidity 0.5.0;\r\n\r\ncontract SaveData {\r\n  uint public totalMedicalReports = 0;\r\n  mapping(uint => Data) public data;\r\n  mapping(address => Sender) public senders;\r\n\r\n  struct Sender {\r\n    uint totalMedicalReports;\r\n    mapping(uint => uint) data;\r\n  }\r\n\r\n  struct Data {\r\n    string hashOfOriginalDataString;\r\n    string secondTimeEncryptedString;\r\n    address sender;\r\n    string medReportId;\r\n  }\r\n\r\n  function saveData(\r\n    string memory secondTimeEncryptedString,\r\n    string memory hashOfOriginalDataString,\r\n    string memory medReportId\r\n  ) public {\r\n    data[totalMedicalReports].secondTimeEncryptedString = secondTimeEncryptedString;\r\n    data[totalMedicalReports].hashOfOriginalDataString = hashOfOriginalDataString;\r\n    data[totalMedicalReports].sender = msg.sender;\r\n    data[totalMedicalReports].medReportId = medReportId;\r\n\r\n    senders[msg.sender].data[senders[msg.sender].totalMedicalReports++] = totalMedicalReports++;\r\n  }\r\n}\r\n",
  "sourcePath": "C:\\Users\\Win\\Desktop\\blockchain\\contracts\\SaveData.sol",
  "compiler": {
    "name": "solc",
    "version": "0.5.0+commit.1d4f565a.Emscripten.clang"
  },
  "schemaVersion": "3.4.16",
  "updatedAt": "2024-07-26T07:14:07.998Z",
  "networkType": "ethereum",
  "devdoc": {
    "methods": {}
  },
  "userdoc": {
    "methods": {}
  }
}